:020000040000FA
:1000000083168501861406108612061206118611C3
:100010008312051086019601851005150721161C0F
:100020000C281610851405115530130203194028A9
:10003000AA30130203194C2812301302031959284D
:1000400044301302031960280D3013020319682885
:100050003530130203197B285D30130203198428FD
:100060008C301302031975284B30130203195128E1
:10007000223013020319552833309400EA200C284B
:100080008316061286128312061286120514452163
:1000900006153F2186150C2883120510F3308605BE
:1000A0000C288312051486150C288312051086115E
:1000B0000C280721161C5928161013089E000C281E
:1000C0000721161C6028161013089B00BA200C2864
:1000D0000721161C6828161013089D000721161CFE
:1000E0006E28161013089F000C281D0899001F0881
:1000F0009C00CA200C281E089B001D0899001F08A0
:100100009C00BA20CA200C281E089B00BA208F2011
:1001100017089400EA2018089400EA200C28970198
:10012000980108309A0083168612061683128616E6
:1001300000008612970C971386160000061A971770
:1001400086129A0B9A2806309A0098138616000099
:10015000061A98178612980C9A0BA5288616000086
:100160008612980C981306128612831686120612AF
:100170008312080006309A00831606128612831234
:1001800006121B1806168616000086129B0C9A0B88
:10019000C028080008309A00990D9C0D19109C1376
:1001A0008316061286128312061219180616861670
:1001B00000008612990C9A0BD42808309A00061277
:1001C0001C1806168616000086129C0C9A0BDF2857
:1001D0001F210800083095008312061483160610AC
:1001E0008312061024210000000000000121940C5D
:1001F0002421950BF62883160614831206141F215A
:1002000008001418052906100800061408008312B7
:100210008618080016149301083095003A2124210D
:1002200000000000930C1921950B0F29861C16293C
:10023000080086181D299313080093170800213021
:100240009000900B212908001F309000900B262968
:100250000000080010309000900B2C290800FB30A3
:1002600090000D309100900B3329910B3329000041
:100270000000080003309000900B3C290800023079
:100280009000900B412900000800F13090000F30E1
:10029000910005309200900B4B29910B4B29920B4A
:0402A0004B290800DE
:0402A40000340034EE
:02400E00F13F80
:00000001FF
